{
  "contractName": "CryptoZombies",
  "abi": [
    {
      "anonymous": false,
      "inputs": [
        {
          "indexed": true,
          "internalType": "address",
          "name": "_owner",
          "type": "address"
        },
        {
          "indexed": true,
          "internalType": "address",
          "name": "_approved",
          "type": "address"
        },
        {
          "indexed": true,
          "internalType": "uint256",
          "name": "_tokenId",
          "type": "uint256"
        }
      ],
      "name": "Approval",
      "type": "event"
    },
    {
      "anonymous": false,
      "inputs": [
        {
          "indexed": false,
          "internalType": "uint256",
          "name": "zombieId",
          "type": "uint256"
        },
        {
          "indexed": false,
          "internalType": "string",
          "name": "name",
          "type": "string"
        },
        {
          "indexed": false,
          "internalType": "uint256",
          "name": "dna",
          "type": "uint256"
        }
      ],
      "name": "NewZombie",
      "type": "event"
    },
    {
      "anonymous": false,
      "inputs": [
        {
          "indexed": true,
          "internalType": "address",
          "name": "previousOwner",
          "type": "address"
        },
        {
          "indexed": true,
          "internalType": "address",
          "name": "newOwner",
          "type": "address"
        }
      ],
      "name": "OwnershipTransferred",
      "type": "event"
    },
    {
      "anonymous": false,
      "inputs": [
        {
          "indexed": true,
          "internalType": "address",
          "name": "_from",
          "type": "address"
        },
        {
          "indexed": true,
          "internalType": "address",
          "name": "_to",
          "type": "address"
        },
        {
          "indexed": true,
          "internalType": "uint256",
          "name": "_tokenId",
          "type": "uint256"
        }
      ],
      "name": "Transfer",
      "type": "event"
    },
    {
      "inputs": [
        {
          "internalType": "address",
          "name": "_approved",
          "type": "address"
        },
        {
          "internalType": "uint256",
          "name": "_tokenId",
          "type": "uint256"
        }
      ],
      "name": "approve",
      "outputs": [],
      "stateMutability": "payable",
      "type": "function",
      "payable": true
    },
    {
      "inputs": [
        {
          "internalType": "uint256",
          "name": "_zombieId",
          "type": "uint256"
        },
        {
          "internalType": "uint256",
          "name": "_targetId",
          "type": "uint256"
        }
      ],
      "name": "attack",
      "outputs": [],
      "stateMutability": "nonpayable",
      "type": "function"
    },
    {
      "inputs": [
        {
          "internalType": "address",
          "name": "_owner",
          "type": "address"
        }
      ],
      "name": "balanceOf",
      "outputs": [
        {
          "internalType": "uint256",
          "name": "",
          "type": "uint256"
        }
      ],
      "stateMutability": "view",
      "type": "function",
      "constant": true
    },
    {
      "inputs": [
        {
          "internalType": "uint256",
          "name": "_zombieId",
          "type": "uint256"
        },
        {
          "internalType": "uint256",
          "name": "_newDna",
          "type": "uint256"
        }
      ],
      "name": "changeDna",
      "outputs": [],
      "stateMutability": "nonpayable",
      "type": "function"
    },
    {
      "inputs": [
        {
          "internalType": "uint256",
          "name": "_zombieId",
          "type": "uint256"
        },
        {
          "internalType": "string",
          "name": "_newName",
          "type": "string"
        }
      ],
      "name": "changeName",
      "outputs": [],
      "stateMutability": "nonpayable",
      "type": "function"
    },
    {
      "inputs": [
        {
          "internalType": "string",
          "name": "_name",
          "type": "string"
        }
      ],
      "name": "createRandomZombie",
      "outputs": [],
      "stateMutability": "nonpayable",
      "type": "function"
    },
    {
      "inputs": [
        {
          "internalType": "address",
          "name": "_owner",
          "type": "address"
        }
      ],
      "name": "getZombiesByOwner",
      "outputs": [
        {
          "internalType": "uint256[]",
          "name": "",
          "type": "uint256[]"
        }
      ],
      "stateMutability": "view",
      "type": "function",
      "constant": true
    },
    {
      "inputs": [],
      "name": "isOwner",
      "outputs": [
        {
          "internalType": "bool",
          "name": "",
          "type": "bool"
        }
      ],
      "stateMutability": "view",
      "type": "function",
      "constant": true
    },
    {
      "inputs": [
        {
          "internalType": "uint256",
          "name": "_zombieId",
          "type": "uint256"
        }
      ],
      "name": "levelUp",
      "outputs": [],
      "stateMutability": "payable",
      "type": "function",
      "payable": true
    },
    {
      "inputs": [],
      "name": "owner",
      "outputs": [
        {
          "internalType": "address",
          "name": "",
          "type": "address"
        }
      ],
      "stateMutability": "view",
      "type": "function",
      "constant": true
    },
    {
      "inputs": [
        {
          "internalType": "uint256",
          "name": "_tokenId",
          "type": "uint256"
        }
      ],
      "name": "ownerOf",
      "outputs": [
        {
          "internalType": "address",
          "name": "",
          "type": "address"
        }
      ],
      "stateMutability": "view",
      "type": "function",
      "constant": true
    },
    {
      "inputs": [],
      "name": "renounceOwnership",
      "outputs": [],
      "stateMutability": "nonpayable",
      "type": "function"
    },
    {
      "inputs": [
        {
          "internalType": "uint256",
          "name": "_fee",
          "type": "uint256"
        }
      ],
      "name": "setLevelUpFee",
      "outputs": [],
      "stateMutability": "nonpayable",
      "type": "function"
    },
    {
      "inputs": [
        {
          "internalType": "address",
          "name": "_from",
          "type": "address"
        },
        {
          "internalType": "address",
          "name": "_to",
          "type": "address"
        },
        {
          "internalType": "uint256",
          "name": "_tokenId",
          "type": "uint256"
        }
      ],
      "name": "transferFrom",
      "outputs": [],
      "stateMutability": "payable",
      "type": "function",
      "payable": true
    },
    {
      "inputs": [
        {
          "internalType": "address",
          "name": "newOwner",
          "type": "address"
        }
      ],
      "name": "transferOwnership",
      "outputs": [],
      "stateMutability": "nonpayable",
      "type": "function"
    },
    {
      "inputs": [],
      "name": "withdraw",
      "outputs": [],
      "stateMutability": "nonpayable",
      "type": "function"
    },
    {
      "inputs": [
        {
          "internalType": "uint256",
          "name": "",
          "type": "uint256"
        }
      ],
      "name": "zombieToOwner",
      "outputs": [
        {
          "internalType": "address",
          "name": "",
          "type": "address"
        }
      ],
      "stateMutability": "view",
      "type": "function",
      "constant": true
    },
    {
      "inputs": [
        {
          "internalType": "uint256",
          "name": "",
          "type": "uint256"
        }
      ],
      "name": "zombies",
      "outputs": [
        {
          "internalType": "string",
          "name": "name",
          "type": "string"
        },
        {
          "internalType": "uint256",
          "name": "dna",
          "type": "uint256"
        },
        {
          "internalType": "uint32",
          "name": "level",
          "type": "uint32"
        },
        {
          "internalType": "uint32",
          "name": "readyTime",
          "type": "uint32"
        },
        {
          "internalType": "uint16",
          "name": "winCount",
          "type": "uint16"
        },
        {
          "internalType": "uint16",
          "name": "lossCount",
          "type": "uint16"
        }
      ],
      "stateMutability": "view",
      "type": "function",
      "constant": true
    }
  ],
  "bytecode": "0x60806040526010600155600154600a6200001a919062000163565b6002556201518060035566038d7ea4c68000600755600060085560466009553480156200004657600080fd5b50336000806101000a81548173ffffffffffffffffffffffffffffffffffffffff021916908373ffffffffffffffffffffffffffffffffffffffff16021790555060008054906101000a900473ffffffffffffffffffffffffffffffffffffffff1673ffffffffffffffffffffffffffffffffffffffff16600073ffffffffffffffffffffffffffffffffffffffff167f8be0079c531659141344cd1fd0a4f28419497f9722a3daafe3b4186f6b6457e060405160405180910390a3620002e6565b6000808291508390505b60018511156200015a57808604811115620001325762000131620002aa565b5b6001851615620001425780820291505b80810290506200015285620002d9565b945062000112565b94509492505050565b60006200017082620002a0565b91506200017d83620002a0565b9250620001ac7fffffffffffffffffffffffffffffffffffffffffffffffffffffffffffffffff8484620001b4565b905092915050565b600082620001c6576001905062000299565b81620001d6576000905062000299565b8160018114620001ef5760028114620001fa5762000230565b600191505062000299565b60ff8411156200020f576200020e620002aa565b5b8360020a915084821115620002295762000228620002aa565b5b5062000299565b5060208310610133831016604e8410600b84101617156200026a5782820a905083811115620002645762000263620002aa565b5b62000299565b62000279848484600162000108565b92509050818404811115620002935762000292620002aa565b5b81810290505b9392505050565b6000819050919050565b7f4e487b7100000000000000000000000000000000000000000000000000000000600052601160045260246000fd5b60008160011c9050919050565b61238e80620002f66000396000f3fe6080604052600436106101095760003560e01c806370a08231116100955780638f32d59b116100645780638f32d59b14610343578063c39cbef11461036e578063ccf670f814610397578063e1fa7638146103c0578063f2fde38b146103e957610109565b806370a082311461029b578063715018a6146102d85780637bff0a01146102ef5780638da5cb5b1461031857610109565b80633ccfd60b116100dc5780633ccfd60b146101a45780634412e104146101bb578063528b7b8f146101f85780635faf2880146102355780636352211e1461025e57610109565b8063095ea7b31461010e5780630ce90ec21461012a5780632052465e1461014657806323b872dd14610188575b600080fd5b610128600480360381019061012391906119af565b610412565b005b610144600480360381019061013f9190611a38565b610530565b005b34801561015257600080fd5b5061016d60048036038101906101689190611a38565b6105a5565b60405161017f96959493929190611d73565b60405180910390f35b6101a2600480360381019061019d919061195c565b6106b5565b005b3480156101b057600080fd5b506101b9610799565b005b3480156101c757600080fd5b506101e260048036038101906101dd919061192f565b610800565b6040516101ef9190611d14565b60405180910390f35b34801561020457600080fd5b5061021f600480360381019061021a9190611a38565b610953565b60405161022c9190611cf9565b60405180910390f35b34801561024157600080fd5b5061025c60048036038101906102579190611ac5565b610986565b005b34801561026a57600080fd5b5061028560048036038101906102809190611a38565b610a6e565b6040516102929190611cf9565b60405180910390f35b3480156102a757600080fd5b506102c260048036038101906102bd919061192f565b610aab565b6040516102cf9190611ddb565b60405180910390f35b3480156102e457600080fd5b506102ed610af4565b005b3480156102fb57600080fd5b50610316600480360381019061031191906119ef565b610bc3565b005b34801561032457600080fd5b5061032d610c2a565b60405161033a9190611cf9565b60405180910390f35b34801561034f57600080fd5b50610358610c53565b6040516103659190611d36565b60405180910390f35b34801561037a57600080fd5b5061039560048036038101906103909190611a65565b610caa565b005b3480156103a357600080fd5b506103be60048036038101906103b99190611a38565b610d9e565b005b3480156103cc57600080fd5b506103e760048036038101906103e29190611ac5565b610db9565b005b3480156103f557600080fd5b50610410600480360381019061040b919061192f565b61101a565b005b806005600082815260200190815260200160002060009054906101000a900473ffffffffffffffffffffffffffffffffffffffff1673ffffffffffffffffffffffffffffffffffffffff163373ffffffffffffffffffffffffffffffffffffffff161461047e57600080fd5b82600a600084815260200190815260200160002060006101000a81548173ffffffffffffffffffffffffffffffffffffffff021916908373ffffffffffffffffffffffffffffffffffffffff160217905550818373ffffffffffffffffffffffffffffffffffffffff163373ffffffffffffffffffffffffffffffffffffffff167f8c5be1e5ebec7d5bd14f71427d1e84f3dd0314c0f7b2291e5b200ac8c7c3b92560405160405180910390a4505050565b600754341461053e57600080fd5b6004818154811061055257610551612267565b5b9060005260206000209060030201600201600081819054906101000a900463ffffffff16809291906105839061214e565b91906101000a81548163ffffffff021916908363ffffffff1602179055505050565b600481815481106105b557600080fd5b90600052602060002090600302016000915090508060000180546105d890612077565b80601f016020809104026020016040519081016040528092919081815260200182805461060490612077565b80156106515780601f1061062657610100808354040283529160200191610651565b820191906000526020600020905b81548152906001019060200180831161063457829003601f168201915b5050505050908060010154908060020160009054906101000a900463ffffffff16908060020160049054906101000a900463ffffffff16908060020160089054906101000a900461ffff169080600201600a9054906101000a900461ffff16905086565b3373ffffffffffffffffffffffffffffffffffffffff166005600083815260200190815260200160002060009054906101000a900473ffffffffffffffffffffffffffffffffffffffff1673ffffffffffffffffffffffffffffffffffffffff16148061078057503373ffffffffffffffffffffffffffffffffffffffff16600a600083815260200190815260200160002060009054906101000a900473ffffffffffffffffffffffffffffffffffffffff1673ffffffffffffffffffffffffffffffffffffffff16145b61078957600080fd5b610794838383611037565b505050565b6107a1610c53565b6107aa57600080fd5b60006107b4610c2a565b90508073ffffffffffffffffffffffffffffffffffffffff166108fc479081150290604051600060405180830381858888f193505050501580156107fc573d6000803e3d6000fd5b5050565b60606000600660008473ffffffffffffffffffffffffffffffffffffffff1673ffffffffffffffffffffffffffffffffffffffff1681526020019081526020016000205467ffffffffffffffff81111561085d5761085c612296565b5b60405190808252806020026020018201604052801561088b5781602001602082028036833780820191505090505b5090506000805b600480549050811015610948578473ffffffffffffffffffffffffffffffffffffffff166005600083815260200190815260200160002060009054906101000a900473ffffffffffffffffffffffffffffffffffffffff1673ffffffffffffffffffffffffffffffffffffffff161415610935578083838151811061091a57610919612267565b5b602002602001018181525050818061093190612105565b9250505b808061094090612105565b915050610892565b508192505050919050565b60056020528060005260406000206000915054906101000a900473ffffffffffffffffffffffffffffffffffffffff1681565b601482816004828154811061099e5761099d612267565b5b906000526020600020906003020160020160009054906101000a900463ffffffff1663ffffffff1610156109d157600080fd5b836005600082815260200190815260200160002060009054906101000a900473ffffffffffffffffffffffffffffffffffffffff1673ffffffffffffffffffffffffffffffffffffffff163373ffffffffffffffffffffffffffffffffffffffff1614610a3d57600080fd5b8360048681548110610a5257610a51612267565b5b9060005260206000209060030201600101819055505050505050565b60006005600083815260200190815260200160002060009054906101000a900473ffffffffffffffffffffffffffffffffffffffff169050919050565b6000600660008373ffffffffffffffffffffffffffffffffffffffff1673ffffffffffffffffffffffffffffffffffffffff168152602001908152602001600020549050919050565b610afc610c53565b610b0557600080fd5b600073ffffffffffffffffffffffffffffffffffffffff1660008054906101000a900473ffffffffffffffffffffffffffffffffffffffff1673ffffffffffffffffffffffffffffffffffffffff167f8be0079c531659141344cd1fd0a4f28419497f9722a3daafe3b4186f6b6457e060405160405180910390a360008060006101000a81548173ffffffffffffffffffffffffffffffffffffffff021916908373ffffffffffffffffffffffffffffffffffffffff160217905550565b6000600660003373ffffffffffffffffffffffffffffffffffffffff1673ffffffffffffffffffffffffffffffffffffffff1681526020019081526020016000205414610c0f57600080fd5b6000610c1a82611193565b9050610c2682826111d8565b5050565b60008060009054906101000a900473ffffffffffffffffffffffffffffffffffffffff16905090565b60008060009054906101000a900473ffffffffffffffffffffffffffffffffffffffff1673ffffffffffffffffffffffffffffffffffffffff163373ffffffffffffffffffffffffffffffffffffffff1614905090565b6002838160048281548110610cc257610cc1612267565b5b906000526020600020906003020160020160009054906101000a900463ffffffff1663ffffffff161015610cf557600080fd5b846005600082815260200190815260200160002060009054906101000a900473ffffffffffffffffffffffffffffffffffffffff1673ffffffffffffffffffffffffffffffffffffffff163373ffffffffffffffffffffffffffffffffffffffff1614610d6157600080fd5b848460048881548110610d7757610d76612267565b5b90600052602060002090600302016000019190610d95929190611716565b50505050505050565b610da6610c53565b610daf57600080fd5b8060078190555050565b816005600082815260200190815260200160002060009054906101000a900473ffffffffffffffffffffffffffffffffffffffff1673ffffffffffffffffffffffffffffffffffffffff163373ffffffffffffffffffffffffffffffffffffffff1614610e2557600080fd5b600060048481548110610e3b57610e3a612267565b5b90600052602060002090600302019050600060048481548110610e6157610e60612267565b5b906000526020600020906003020190506000610e7d606461140e565b90506009548111610f8e5782600201600881819054906101000a900461ffff1680929190610eaa906120da565b91906101000a81548161ffff021916908361ffff1602179055505082600201600081819054906101000a900463ffffffff1680929190610ee99061214e565b91906101000a81548163ffffffff021916908363ffffffff1602179055505081600201600a81819054906101000a900461ffff1680929190610f2a906120da565b91906101000a81548161ffff021916908361ffff16021790555050610f898683600101546040518060400160405280600681526020017f7a6f6d626965000000000000000000000000000000000000000000000000000081525061146a565b611012565b82600201600a81819054906101000a900461ffff1680929190610fb0906120da565b91906101000a81548161ffff021916908361ffff1602179055505081600201600881819054906101000a900461ffff1680929190610fed906120da565b91906101000a81548161ffff021916908361ffff16021790555050611011836115ec565b5b505050505050565b611022610c53565b61102b57600080fd5b6110348161161f565b50565b600660008373ffffffffffffffffffffffffffffffffffffffff1673ffffffffffffffffffffffffffffffffffffffff168152602001908152602001600020600081548092919061108790612105565b9190505550600660008473ffffffffffffffffffffffffffffffffffffffff1673ffffffffffffffffffffffffffffffffffffffff16815260200190815260200160002060008154809291906110dc9061204d565b9190505550816005600083815260200190815260200160002060006101000a81548173ffffffffffffffffffffffffffffffffffffffff021916908373ffffffffffffffffffffffffffffffffffffffff160217905550808273ffffffffffffffffffffffffffffffffffffffff168473ffffffffffffffffffffffffffffffffffffffff167fddf252ad1be2c89b69c2b068fc378daa952ba7f163c4a11628f55a4df523b3ef60405160405180910390a4505050565b600080826040516020016111a79190611d51565b6040516020818303038152906040528051906020012060001c9050600254816111d091906121a9565b915050919050565b60046040518060c00160405280848152602001838152602001600163ffffffff1681526020016003544261120c9190611eea565b63ffffffff168152602001600061ffff168152602001600061ffff168152509080600181540180825580915050600190039060005260206000209060030201600090919091909150600082015181600001908051906020019061127092919061179c565b506020820151816001015560408201518160020160006101000a81548163ffffffff021916908363ffffffff16021790555060608201518160020160046101000a81548163ffffffff021916908363ffffffff16021790555060808201518160020160086101000a81548161ffff021916908361ffff16021790555060a082015181600201600a6101000a81548161ffff021916908361ffff1602179055505050600060016004805490506113259190611f71565b9050336005600083815260200190815260200160002060006101000a81548173ffffffffffffffffffffffffffffffffffffffff021916908373ffffffffffffffffffffffffffffffffffffffff160217905550600660003373ffffffffffffffffffffffffffffffffffffffff1673ffffffffffffffffffffffffffffffffffffffff16815260200190815260200160002060008154809291906113c990612105565b91905055507f88f026aacbbecc90c18411df4b1185fd8d9be2470f1962f192bf84a27d0704b781848460405161140193929190611df6565b60405180910390a1505050565b60006008600081548092919061142390612105565b919050555081423360085460405160200161144093929190611cbc565b6040516020818303038152906040528051906020012060001c61146391906121a9565b9050919050565b826005600082815260200190815260200160002060009054906101000a900473ffffffffffffffffffffffffffffffffffffffff1673ffffffffffffffffffffffffffffffffffffffff163373ffffffffffffffffffffffffffffffffffffffff16146114d657600080fd5b6000600485815481106114ec576114eb612267565b5b906000526020600020906003020190506002548461150a91906121a9565b9350600060028583600101546115209190611eea565b61152a9190611f40565b905060405160200161153b90611ca7565b60405160208183030381529060405280519060200120846040516020016115629190611c90565b6040516020818303038152906040528051906020012014156115a557606360648261158d91906121a9565b826115989190611f71565b6115a29190611eea565b90505b6115e46040518060400160405280600681526020017f4e6f4e616d650000000000000000000000000000000000000000000000000000815250826111d8565b505050505050565b600354426115fa9190611eea565b8160020160046101000a81548163ffffffff021916908363ffffffff16021790555050565b600073ffffffffffffffffffffffffffffffffffffffff168173ffffffffffffffffffffffffffffffffffffffff16141561165957600080fd5b8073ffffffffffffffffffffffffffffffffffffffff1660008054906101000a900473ffffffffffffffffffffffffffffffffffffffff1673ffffffffffffffffffffffffffffffffffffffff167f8be0079c531659141344cd1fd0a4f28419497f9722a3daafe3b4186f6b6457e060405160405180910390a3806000806101000a81548173ffffffffffffffffffffffffffffffffffffffff021916908373ffffffffffffffffffffffffffffffffffffffff16021790555050565b82805461172290612077565b90600052602060002090601f016020900481019282611744576000855561178b565b82601f1061175d57803560ff191683800117855561178b565b8280016001018555821561178b579182015b8281111561178a57823582559160200191906001019061176f565b5b5090506117989190611822565b5090565b8280546117a890612077565b90600052602060002090601f0160209004810192826117ca5760008555611811565b82601f106117e357805160ff1916838001178555611811565b82800160010185558215611811579182015b828111156118105782518255916020019190600101906117f5565b5b50905061181e9190611822565b5090565b5b8082111561183b576000816000905550600101611823565b5090565b600061185261184d84611e59565b611e34565b90508281526020810184848401111561186e5761186d6122d4565b5b61187984828561200b565b509392505050565b6000813590506118908161232a565b92915050565b60008083601f8401126118ac576118ab6122ca565b5b8235905067ffffffffffffffff8111156118c9576118c86122c5565b5b6020830191508360018202830111156118e5576118e46122cf565b5b9250929050565b600082601f830112611901576119006122ca565b5b813561191184826020860161183f565b91505092915050565b60008135905061192981612341565b92915050565b600060208284031215611945576119446122de565b5b600061195384828501611881565b91505092915050565b600080600060608486031215611975576119746122de565b5b600061198386828701611881565b935050602061199486828701611881565b92505060406119a58682870161191a565b9150509250925092565b600080604083850312156119c6576119c56122de565b5b60006119d485828601611881565b92505060206119e58582860161191a565b9150509250929050565b600060208284031215611a0557611a046122de565b5b600082013567ffffffffffffffff811115611a2357611a226122d9565b5b611a2f848285016118ec565b91505092915050565b600060208284031215611a4e57611a4d6122de565b5b6000611a5c8482850161191a565b91505092915050565b600080600060408486031215611a7e57611a7d6122de565b5b6000611a8c8682870161191a565b935050602084013567ffffffffffffffff811115611aad57611aac6122d9565b5b611ab986828701611896565b92509250509250925092565b60008060408385031215611adc57611adb6122de565b5b6000611aea8582860161191a565b9250506020611afb8582860161191a565b9150509250929050565b6000611b118383611c4c565b60208301905092915050565b611b2681611fa5565b82525050565b611b3d611b3882611fa5565b61217b565b82525050565b6000611b4e82611e9a565b611b588185611ebd565b9350611b6383611e8a565b8060005b83811015611b94578151611b7b8882611b05565b9750611b8683611eb0565b925050600181019050611b67565b5085935050505092915050565b611baa81611fb7565b82525050565b6000611bbb82611ea5565b611bc58185611ece565b9350611bd581856020860161201a565b611bde816122e3565b840191505092915050565b6000611bf482611ea5565b611bfe8185611edf565b9350611c0e81856020860161201a565b80840191505092915050565b6000611c27600583611edf565b9150611c3282612301565b600582019050919050565b611c4681611fc3565b82525050565b611c5581611ff1565b82525050565b611c6481611ff1565b82525050565b611c7b611c7682611ff1565b61219f565b82525050565b611c8a81611ffb565b82525050565b6000611c9c8284611be9565b915081905092915050565b6000611cb282611c1a565b9150819050919050565b6000611cc88286611c6a565b602082019150611cd88285611b2c565b601482019150611ce88284611c6a565b602082019150819050949350505050565b6000602082019050611d0e6000830184611b1d565b92915050565b60006020820190508181036000830152611d2e8184611b43565b905092915050565b6000602082019050611d4b6000830184611ba1565b92915050565b60006020820190508181036000830152611d6b8184611bb0565b905092915050565b600060c0820190508181036000830152611d8d8189611bb0565b9050611d9c6020830188611c5b565b611da96040830187611c81565b611db66060830186611c81565b611dc36080830185611c3d565b611dd060a0830184611c3d565b979650505050505050565b6000602082019050611df06000830184611c5b565b92915050565b6000606082019050611e0b6000830186611c5b565b8181036020830152611e1d8185611bb0565b9050611e2c6040830184611c5b565b949350505050565b6000611e3e611e4f565b9050611e4a82826120a9565b919050565b6000604051905090565b600067ffffffffffffffff821115611e7457611e73612296565b5b611e7d826122e3565b9050602081019050919050565b6000819050602082019050919050565b600081519050919050565b600081519050919050565b6000602082019050919050565b600082825260208201905092915050565b600082825260208201905092915050565b600081905092915050565b6000611ef582611ff1565b9150611f0083611ff1565b9250827fffffffffffffffffffffffffffffffffffffffffffffffffffffffffffffffff03821115611f3557611f346121da565b5b828201905092915050565b6000611f4b82611ff1565b9150611f5683611ff1565b925082611f6657611f65612209565b5b828204905092915050565b6000611f7c82611ff1565b9150611f8783611ff1565b925082821015611f9a57611f996121da565b5b828203905092915050565b6000611fb082611fd1565b9050919050565b60008115159050919050565b600061ffff82169050919050565b600073ffffffffffffffffffffffffffffffffffffffff82169050919050565b6000819050919050565b600063ffffffff82169050919050565b82818337600083830152505050565b60005b8381101561203857808201518184015260208101905061201d565b83811115612047576000848401525b50505050565b600061205882611ff1565b9150600082141561206c5761206b6121da565b5b600182039050919050565b6000600282049050600182168061208f57607f821691505b602082108114156120a3576120a2612238565b5b50919050565b6120b2826122e3565b810181811067ffffffffffffffff821117156120d1576120d0612296565b5b80604052505050565b60006120e582611fc3565b915061ffff8214156120fa576120f96121da565b5b600182019050919050565b600061211082611ff1565b91507fffffffffffffffffffffffffffffffffffffffffffffffffffffffffffffffff821415612143576121426121da565b5b600182019050919050565b600061215982611ffb565b915063ffffffff8214156121705761216f6121da565b5b600182019050919050565b60006121868261218d565b9050919050565b6000612198826122f4565b9050919050565b6000819050919050565b60006121b482611ff1565b91506121bf83611ff1565b9250826121cf576121ce612209565b5b828206905092915050565b7f4e487b7100000000000000000000000000000000000000000000000000000000600052601160045260246000fd5b7f4e487b7100000000000000000000000000000000000000000000000000000000600052601260045260246000fd5b7f4e487b7100000000000000000000000000000000000000000000000000000000600052602260045260246000fd5b7f4e487b7100000000000000000000000000000000000000000000000000000000600052603260045260246000fd5b7f4e487b7100000000000000000000000000000000000000000000000000000000600052604160045260246000fd5b600080fd5b600080fd5b600080fd5b600080fd5b600080fd5b600080fd5b6000601f19601f8301169050919050565b60008160601b9050919050565b7f6b69747479000000000000000000000000000000000000000000000000000000600082015250565b61233381611fa5565b811461233e57600080fd5b50565b61234a81611ff1565b811461235557600080fd5b5056fea26469706673582212209c7b9b3753feecb5a8ebd5f3a1745b642196d342dcf7e341d6366367b38f0a2a64736f6c63430008060033",
  "immutableReferences": {},
  "source": "// SPDX-License-Identifier: MIT\npragma solidity >=0.4.22 <0.9.0;\n\n\nimport \"./ZombieOwnership.sol\";\n\ncontract CryptoZombies is ZombieOwnership {\n}",
  "sourcePath": "/Users/geotech/Desktop/Personal/Projects/CryptoZombies/contracts/CryptoZombies.sol",
  "compiler": {
    "name": "solc",
    "version": "0.8.6+commit.11564f7e.Emscripten.clang"
  },
  "schemaVersion": "3.4.1",
  "updatedAt": "2021-07-27T16:45:17.952Z",
  "networkType": "ethereum",
  "devdoc": {
    "kind": "dev",
    "methods": {
      "isOwner()": {
        "returns": {
          "_0": "true if `msg.sender` is the owner of the contract."
        }
      },
      "owner()": {
        "returns": {
          "_0": "the address of the owner."
        }
      },
      "renounceOwnership()": {
        "details": "Allows the current owner to relinquish control of the contract."
      },
      "transferOwnership(address)": {
        "details": "Allows the current owner to transfer control of the contract to a newOwner.",
        "params": {
          "newOwner": "The address to transfer ownership to."
        }
      }
    },
    "version": 1
  },
  "userdoc": {
    "kind": "user",
    "methods": {
      "renounceOwnership()": {
        "notice": "Renouncing to ownership will leave the contract without an owner. It will not be possible to call the functions with the `onlyOwner` modifier anymore."
      }
    },
    "version": 1
  }
}