{
  "contractName": "ZombieAttack",
  "abi": [
    {
      "anonymous": false,
      "inputs": [
        {
          "indexed": false,
          "internalType": "uint256",
          "name": "zombieId",
          "type": "uint256"
        },
        {
          "indexed": false,
          "internalType": "string",
          "name": "name",
          "type": "string"
        },
        {
          "indexed": false,
          "internalType": "uint256",
          "name": "dna",
          "type": "uint256"
        }
      ],
      "name": "NewZombie",
      "type": "event"
    },
    {
      "anonymous": false,
      "inputs": [
        {
          "indexed": true,
          "internalType": "address",
          "name": "previousOwner",
          "type": "address"
        },
        {
          "indexed": true,
          "internalType": "address",
          "name": "newOwner",
          "type": "address"
        }
      ],
      "name": "OwnershipTransferred",
      "type": "event"
    },
    {
      "inputs": [
        {
          "internalType": "uint256",
          "name": "_zombieId",
          "type": "uint256"
        },
        {
          "internalType": "uint256",
          "name": "_newDna",
          "type": "uint256"
        }
      ],
      "name": "changeDna",
      "outputs": [],
      "stateMutability": "nonpayable",
      "type": "function"
    },
    {
      "inputs": [
        {
          "internalType": "uint256",
          "name": "_zombieId",
          "type": "uint256"
        },
        {
          "internalType": "string",
          "name": "_newName",
          "type": "string"
        }
      ],
      "name": "changeName",
      "outputs": [],
      "stateMutability": "nonpayable",
      "type": "function"
    },
    {
      "inputs": [
        {
          "internalType": "string",
          "name": "_name",
          "type": "string"
        }
      ],
      "name": "createRandomZombie",
      "outputs": [],
      "stateMutability": "nonpayable",
      "type": "function"
    },
    {
      "inputs": [
        {
          "internalType": "address",
          "name": "_owner",
          "type": "address"
        }
      ],
      "name": "getZombiesByOwner",
      "outputs": [
        {
          "internalType": "uint256[]",
          "name": "",
          "type": "uint256[]"
        }
      ],
      "stateMutability": "view",
      "type": "function"
    },
    {
      "inputs": [],
      "name": "isOwner",
      "outputs": [
        {
          "internalType": "bool",
          "name": "",
          "type": "bool"
        }
      ],
      "stateMutability": "view",
      "type": "function"
    },
    {
      "inputs": [
        {
          "internalType": "uint256",
          "name": "_zombieId",
          "type": "uint256"
        }
      ],
      "name": "levelUp",
      "outputs": [],
      "stateMutability": "payable",
      "type": "function"
    },
    {
      "inputs": [],
      "name": "owner",
      "outputs": [
        {
          "internalType": "address",
          "name": "",
          "type": "address"
        }
      ],
      "stateMutability": "view",
      "type": "function"
    },
    {
      "inputs": [],
      "name": "renounceOwnership",
      "outputs": [],
      "stateMutability": "nonpayable",
      "type": "function"
    },
    {
      "inputs": [
        {
          "internalType": "uint256",
          "name": "_fee",
          "type": "uint256"
        }
      ],
      "name": "setLevelUpFee",
      "outputs": [],
      "stateMutability": "nonpayable",
      "type": "function"
    },
    {
      "inputs": [
        {
          "internalType": "address",
          "name": "newOwner",
          "type": "address"
        }
      ],
      "name": "transferOwnership",
      "outputs": [],
      "stateMutability": "nonpayable",
      "type": "function"
    },
    {
      "inputs": [],
      "name": "withdraw",
      "outputs": [],
      "stateMutability": "nonpayable",
      "type": "function"
    },
    {
      "inputs": [
        {
          "internalType": "uint256",
          "name": "",
          "type": "uint256"
        }
      ],
      "name": "zombieToOwner",
      "outputs": [
        {
          "internalType": "address",
          "name": "",
          "type": "address"
        }
      ],
      "stateMutability": "view",
      "type": "function"
    },
    {
      "inputs": [
        {
          "internalType": "uint256",
          "name": "",
          "type": "uint256"
        }
      ],
      "name": "zombies",
      "outputs": [
        {
          "internalType": "string",
          "name": "name",
          "type": "string"
        },
        {
          "internalType": "uint256",
          "name": "dna",
          "type": "uint256"
        },
        {
          "internalType": "uint32",
          "name": "level",
          "type": "uint32"
        },
        {
          "internalType": "uint32",
          "name": "readyTime",
          "type": "uint32"
        },
        {
          "internalType": "uint16",
          "name": "winCount",
          "type": "uint16"
        },
        {
          "internalType": "uint16",
          "name": "lossCount",
          "type": "uint16"
        }
      ],
      "stateMutability": "view",
      "type": "function"
    },
    {
      "inputs": [
        {
          "internalType": "uint256",
          "name": "_zombieId",
          "type": "uint256"
        },
        {
          "internalType": "uint256",
          "name": "_targetId",
          "type": "uint256"
        }
      ],
      "name": "attack",
      "outputs": [],
      "stateMutability": "nonpayable",
      "type": "function"
    }
  ],
  "bytecode": "0x60806040526010600155600154600a6200001a919062000163565b6002556201518060035566038d7ea4c68000600755600060085560466009553480156200004657600080fd5b50336000806101000a81548173ffffffffffffffffffffffffffffffffffffffff021916908373ffffffffffffffffffffffffffffffffffffffff16021790555060008054906101000a900473ffffffffffffffffffffffffffffffffffffffff1673ffffffffffffffffffffffffffffffffffffffff16600073ffffffffffffffffffffffffffffffffffffffff167f8be0079c531659141344cd1fd0a4f28419497f9722a3daafe3b4186f6b6457e060405160405180910390a3620002e6565b6000808291508390505b60018511156200015a57808604811115620001325762000131620002aa565b5b6001851615620001425780820291505b80810290506200015285620002d9565b945062000112565b94509492505050565b60006200017082620002a0565b91506200017d83620002a0565b9250620001ac7fffffffffffffffffffffffffffffffffffffffffffffffffffffffffffffffff8484620001b4565b905092915050565b600082620001c6576001905062000299565b81620001d6576000905062000299565b8160018114620001ef5760028114620001fa5762000230565b600191505062000299565b60ff8411156200020f576200020e620002aa565b5b8360020a915084821115620002295762000228620002aa565b5b5062000299565b5060208310610133831016604e8410600b84101617156200026a5782820a905083811115620002645762000263620002aa565b5b62000299565b62000279848484600162000108565b92509050818404811115620002935762000292620002aa565b5b81810290505b9392505050565b6000819050919050565b7f4e487b7100000000000000000000000000000000000000000000000000000000600052601160045260246000fd5b60008160011c9050919050565b611df480620002f66000396000f3fe6080604052600436106100dd5760003560e01c80637bff0a011161007f578063c39cbef111610059578063c39cbef114610290578063ccf670f8146102b9578063e1fa7638146102e2578063f2fde38b1461030b576100dd565b80637bff0a01146102115780638da5cb5b1461023a5780638f32d59b14610265576100dd565b80634412e104116100bb5780634412e10414610157578063528b7b8f146101945780635faf2880146101d1578063715018a6146101fa576100dd565b80630ce90ec2146100e25780632052465e146100fe5780633ccfd60b14610140575b600080fd5b6100fc60048036038101906100f791906114e3565b610334565b005b34801561010a57600080fd5b50610125600480360381019061012091906114e3565b6103a9565b6040516101379695949392919061181e565b60405180910390f35b34801561014c57600080fd5b506101556104b9565b005b34801561016357600080fd5b5061017e6004803603810190610179919061146d565b610520565b60405161018b91906117bf565b60405180910390f35b3480156101a057600080fd5b506101bb60048036038101906101b691906114e3565b610673565b6040516101c891906117a4565b60405180910390f35b3480156101dd57600080fd5b506101f860048036038101906101f39190611570565b6106a6565b005b34801561020657600080fd5b5061020f61078e565b005b34801561021d57600080fd5b506102386004803603810190610233919061149a565b61085d565b005b34801561024657600080fd5b5061024f6108c4565b60405161025c91906117a4565b60405180910390f35b34801561027157600080fd5b5061027a6108ed565b60405161028791906117e1565b60405180910390f35b34801561029c57600080fd5b506102b760048036038101906102b29190611510565b610944565b005b3480156102c557600080fd5b506102e060048036038101906102db91906114e3565b610a38565b005b3480156102ee57600080fd5b5061030960048036038101906103049190611570565b610a53565b005b34801561031757600080fd5b50610332600480360381019061032d919061146d565b610cb4565b005b600754341461034257600080fd5b6004818154811061035657610355611ccd565b5b9060005260206000209060030201600201600081819054906101000a900463ffffffff168092919061038790611bb4565b91906101000a81548163ffffffff021916908363ffffffff1602179055505050565b600481815481106103b957600080fd5b90600052602060002090600302016000915090508060000180546103dc90611add565b80601f016020809104026020016040519081016040528092919081815260200182805461040890611add565b80156104555780601f1061042a57610100808354040283529160200191610455565b820191906000526020600020905b81548152906001019060200180831161043857829003601f168201915b5050505050908060010154908060020160009054906101000a900463ffffffff16908060020160049054906101000a900463ffffffff16908060020160089054906101000a900461ffff169080600201600a9054906101000a900461ffff16905086565b6104c16108ed565b6104ca57600080fd5b60006104d46108c4565b90508073ffffffffffffffffffffffffffffffffffffffff166108fc479081150290604051600060405180830381858888f1935050505015801561051c573d6000803e3d6000fd5b5050565b60606000600660008473ffffffffffffffffffffffffffffffffffffffff1673ffffffffffffffffffffffffffffffffffffffff1681526020019081526020016000205467ffffffffffffffff81111561057d5761057c611cfc565b5b6040519080825280602002602001820160405280156105ab5781602001602082028036833780820191505090505b5090506000805b600480549050811015610668578473ffffffffffffffffffffffffffffffffffffffff166005600083815260200190815260200160002060009054906101000a900473ffffffffffffffffffffffffffffffffffffffff1673ffffffffffffffffffffffffffffffffffffffff161415610655578083838151811061063a57610639611ccd565b5b602002602001018181525050818061065190611b6b565b9250505b808061066090611b6b565b9150506105b2565b508192505050919050565b60056020528060005260406000206000915054906101000a900473ffffffffffffffffffffffffffffffffffffffff1681565b60148281600482815481106106be576106bd611ccd565b5b906000526020600020906003020160020160009054906101000a900463ffffffff1663ffffffff1610156106f157600080fd5b836005600082815260200190815260200160002060009054906101000a900473ffffffffffffffffffffffffffffffffffffffff1673ffffffffffffffffffffffffffffffffffffffff163373ffffffffffffffffffffffffffffffffffffffff161461075d57600080fd5b836004868154811061077257610771611ccd565b5b9060005260206000209060030201600101819055505050505050565b6107966108ed565b61079f57600080fd5b600073ffffffffffffffffffffffffffffffffffffffff1660008054906101000a900473ffffffffffffffffffffffffffffffffffffffff1673ffffffffffffffffffffffffffffffffffffffff167f8be0079c531659141344cd1fd0a4f28419497f9722a3daafe3b4186f6b6457e060405160405180910390a360008060006101000a81548173ffffffffffffffffffffffffffffffffffffffff021916908373ffffffffffffffffffffffffffffffffffffffff160217905550565b6000600660003373ffffffffffffffffffffffffffffffffffffffff1673ffffffffffffffffffffffffffffffffffffffff16815260200190815260200160002054146108a957600080fd5b60006108b482610cd1565b90506108c08282610d16565b5050565b60008060009054906101000a900473ffffffffffffffffffffffffffffffffffffffff16905090565b60008060009054906101000a900473ffffffffffffffffffffffffffffffffffffffff1673ffffffffffffffffffffffffffffffffffffffff163373ffffffffffffffffffffffffffffffffffffffff1614905090565b600283816004828154811061095c5761095b611ccd565b5b906000526020600020906003020160020160009054906101000a900463ffffffff1663ffffffff16101561098f57600080fd5b846005600082815260200190815260200160002060009054906101000a900473ffffffffffffffffffffffffffffffffffffffff1673ffffffffffffffffffffffffffffffffffffffff163373ffffffffffffffffffffffffffffffffffffffff16146109fb57600080fd5b848460048881548110610a1157610a10611ccd565b5b90600052602060002090600302016000019190610a2f929190611254565b50505050505050565b610a406108ed565b610a4957600080fd5b8060078190555050565b816005600082815260200190815260200160002060009054906101000a900473ffffffffffffffffffffffffffffffffffffffff1673ffffffffffffffffffffffffffffffffffffffff163373ffffffffffffffffffffffffffffffffffffffff1614610abf57600080fd5b600060048481548110610ad557610ad4611ccd565b5b90600052602060002090600302019050600060048481548110610afb57610afa611ccd565b5b906000526020600020906003020190506000610b176064610f4c565b90506009548111610c285782600201600881819054906101000a900461ffff1680929190610b4490611b40565b91906101000a81548161ffff021916908361ffff1602179055505082600201600081819054906101000a900463ffffffff1680929190610b8390611bb4565b91906101000a81548163ffffffff021916908363ffffffff1602179055505081600201600a81819054906101000a900461ffff1680929190610bc490611b40565b91906101000a81548161ffff021916908361ffff16021790555050610c238683600101546040518060400160405280600681526020017f7a6f6d6269650000000000000000000000000000000000000000000000000000815250610fa8565b610cac565b82600201600a81819054906101000a900461ffff1680929190610c4a90611b40565b91906101000a81548161ffff021916908361ffff1602179055505081600201600881819054906101000a900461ffff1680929190610c8790611b40565b91906101000a81548161ffff021916908361ffff16021790555050610cab8361112a565b5b505050505050565b610cbc6108ed565b610cc557600080fd5b610cce8161115d565b50565b60008082604051602001610ce591906117fc565b6040516020818303038152906040528051906020012060001c905060025481610d0e9190611c0f565b915050919050565b60046040518060c00160405280848152602001838152602001600163ffffffff16815260200160035442610d4a919061197a565b63ffffffff168152602001600061ffff168152602001600061ffff1681525090806001815401808255809150506001900390600052602060002090600302016000909190919091506000820151816000019080519060200190610dae9291906112da565b506020820151816001015560408201518160020160006101000a81548163ffffffff021916908363ffffffff16021790555060608201518160020160046101000a81548163ffffffff021916908363ffffffff16021790555060808201518160020160086101000a81548161ffff021916908361ffff16021790555060a082015181600201600a6101000a81548161ffff021916908361ffff160217905550505060006001600480549050610e639190611a01565b9050336005600083815260200190815260200160002060006101000a81548173ffffffffffffffffffffffffffffffffffffffff021916908373ffffffffffffffffffffffffffffffffffffffff160217905550600660003373ffffffffffffffffffffffffffffffffffffffff1673ffffffffffffffffffffffffffffffffffffffff1681526020019081526020016000206000815480929190610f0790611b6b565b91905055507f88f026aacbbecc90c18411df4b1185fd8d9be2470f1962f192bf84a27d0704b7818484604051610f3f93929190611886565b60405180910390a1505050565b600060086000815480929190610f6190611b6b565b9190505550814233600854604051602001610f7e93929190611767565b6040516020818303038152906040528051906020012060001c610fa19190611c0f565b9050919050565b826005600082815260200190815260200160002060009054906101000a900473ffffffffffffffffffffffffffffffffffffffff1673ffffffffffffffffffffffffffffffffffffffff163373ffffffffffffffffffffffffffffffffffffffff161461101457600080fd5b60006004858154811061102a57611029611ccd565b5b90600052602060002090600302019050600254846110489190611c0f565b93506000600285836001015461105e919061197a565b61106891906119d0565b905060405160200161107990611752565b60405160208183030381529060405280519060200120846040516020016110a0919061173b565b6040516020818303038152906040528051906020012014156110e35760636064826110cb9190611c0f565b826110d69190611a01565b6110e0919061197a565b90505b6111226040518060400160405280600681526020017f4e6f4e616d65000000000000000000000000000000000000000000000000000081525082610d16565b505050505050565b60035442611138919061197a565b8160020160046101000a81548163ffffffff021916908363ffffffff16021790555050565b600073ffffffffffffffffffffffffffffffffffffffff168173ffffffffffffffffffffffffffffffffffffffff16141561119757600080fd5b8073ffffffffffffffffffffffffffffffffffffffff1660008054906101000a900473ffffffffffffffffffffffffffffffffffffffff1673ffffffffffffffffffffffffffffffffffffffff167f8be0079c531659141344cd1fd0a4f28419497f9722a3daafe3b4186f6b6457e060405160405180910390a3806000806101000a81548173ffffffffffffffffffffffffffffffffffffffff021916908373ffffffffffffffffffffffffffffffffffffffff16021790555050565b82805461126090611add565b90600052602060002090601f01602090048101928261128257600085556112c9565b82601f1061129b57803560ff19168380011785556112c9565b828001600101855582156112c9579182015b828111156112c85782358255916020019190600101906112ad565b5b5090506112d69190611360565b5090565b8280546112e690611add565b90600052602060002090601f016020900481019282611308576000855561134f565b82601f1061132157805160ff191683800117855561134f565b8280016001018555821561134f579182015b8281111561134e578251825591602001919060010190611333565b5b50905061135c9190611360565b5090565b5b80821115611379576000816000905550600101611361565b5090565b600061139061138b846118e9565b6118c4565b9050828152602081018484840111156113ac576113ab611d3a565b5b6113b7848285611a9b565b509392505050565b6000813590506113ce81611d90565b92915050565b60008083601f8401126113ea576113e9611d30565b5b8235905067ffffffffffffffff81111561140757611406611d2b565b5b60208301915083600182028301111561142357611422611d35565b5b9250929050565b600082601f83011261143f5761143e611d30565b5b813561144f84826020860161137d565b91505092915050565b60008135905061146781611da7565b92915050565b60006020828403121561148357611482611d44565b5b6000611491848285016113bf565b91505092915050565b6000602082840312156114b0576114af611d44565b5b600082013567ffffffffffffffff8111156114ce576114cd611d3f565b5b6114da8482850161142a565b91505092915050565b6000602082840312156114f9576114f8611d44565b5b600061150784828501611458565b91505092915050565b60008060006040848603121561152957611528611d44565b5b600061153786828701611458565b935050602084013567ffffffffffffffff81111561155857611557611d3f565b5b611564868287016113d4565b92509250509250925092565b6000806040838503121561158757611586611d44565b5b600061159585828601611458565b92505060206115a685828601611458565b9150509250929050565b60006115bc83836116f7565b60208301905092915050565b6115d181611a35565b82525050565b6115e86115e382611a35565b611be1565b82525050565b60006115f98261192a565b611603818561194d565b935061160e8361191a565b8060005b8381101561163f57815161162688826115b0565b975061163183611940565b925050600181019050611612565b5085935050505092915050565b61165581611a47565b82525050565b600061166682611935565b611670818561195e565b9350611680818560208601611aaa565b61168981611d49565b840191505092915050565b600061169f82611935565b6116a9818561196f565b93506116b9818560208601611aaa565b80840191505092915050565b60006116d260058361196f565b91506116dd82611d67565b600582019050919050565b6116f181611a53565b82525050565b61170081611a81565b82525050565b61170f81611a81565b82525050565b61172661172182611a81565b611c05565b82525050565b61173581611a8b565b82525050565b60006117478284611694565b915081905092915050565b600061175d826116c5565b9150819050919050565b60006117738286611715565b60208201915061178382856115d7565b6014820191506117938284611715565b602082019150819050949350505050565b60006020820190506117b960008301846115c8565b92915050565b600060208201905081810360008301526117d981846115ee565b905092915050565b60006020820190506117f6600083018461164c565b92915050565b60006020820190508181036000830152611816818461165b565b905092915050565b600060c0820190508181036000830152611838818961165b565b90506118476020830188611706565b611854604083018761172c565b611861606083018661172c565b61186e60808301856116e8565b61187b60a08301846116e8565b979650505050505050565b600060608201905061189b6000830186611706565b81810360208301526118ad818561165b565b90506118bc6040830184611706565b949350505050565b60006118ce6118df565b90506118da8282611b0f565b919050565b6000604051905090565b600067ffffffffffffffff82111561190457611903611cfc565b5b61190d82611d49565b9050602081019050919050565b6000819050602082019050919050565b600081519050919050565b600081519050919050565b6000602082019050919050565b600082825260208201905092915050565b600082825260208201905092915050565b600081905092915050565b600061198582611a81565b915061199083611a81565b9250827fffffffffffffffffffffffffffffffffffffffffffffffffffffffffffffffff038211156119c5576119c4611c40565b5b828201905092915050565b60006119db82611a81565b91506119e683611a81565b9250826119f6576119f5611c6f565b5b828204905092915050565b6000611a0c82611a81565b9150611a1783611a81565b925082821015611a2a57611a29611c40565b5b828203905092915050565b6000611a4082611a61565b9050919050565b60008115159050919050565b600061ffff82169050919050565b600073ffffffffffffffffffffffffffffffffffffffff82169050919050565b6000819050919050565b600063ffffffff82169050919050565b82818337600083830152505050565b60005b83811015611ac8578082015181840152602081019050611aad565b83811115611ad7576000848401525b50505050565b60006002820490506001821680611af557607f821691505b60208210811415611b0957611b08611c9e565b5b50919050565b611b1882611d49565b810181811067ffffffffffffffff82111715611b3757611b36611cfc565b5b80604052505050565b6000611b4b82611a53565b915061ffff821415611b6057611b5f611c40565b5b600182019050919050565b6000611b7682611a81565b91507fffffffffffffffffffffffffffffffffffffffffffffffffffffffffffffffff821415611ba957611ba8611c40565b5b600182019050919050565b6000611bbf82611a8b565b915063ffffffff821415611bd657611bd5611c40565b5b600182019050919050565b6000611bec82611bf3565b9050919050565b6000611bfe82611d5a565b9050919050565b6000819050919050565b6000611c1a82611a81565b9150611c2583611a81565b925082611c3557611c34611c6f565b5b828206905092915050565b7f4e487b7100000000000000000000000000000000000000000000000000000000600052601160045260246000fd5b7f4e487b7100000000000000000000000000000000000000000000000000000000600052601260045260246000fd5b7f4e487b7100000000000000000000000000000000000000000000000000000000600052602260045260246000fd5b7f4e487b7100000000000000000000000000000000000000000000000000000000600052603260045260246000fd5b7f4e487b7100000000000000000000000000000000000000000000000000000000600052604160045260246000fd5b600080fd5b600080fd5b600080fd5b600080fd5b600080fd5b600080fd5b6000601f19601f8301169050919050565b60008160601b9050919050565b7f6b69747479000000000000000000000000000000000000000000000000000000600082015250565b611d9981611a35565b8114611da457600080fd5b50565b611db081611a81565b8114611dbb57600080fd5b5056fea264697066735822122025255d6db5d9051fe5256040c52e92a45af4ae09ba314084f620728793a28c7c64736f6c63430008060033",
  "immutableReferences": {},
  "source": "// SPDX-License-Identifier: UNLICENSED\"\npragma solidity ^0.8.6;\n\nimport \"./ZombieHelper.sol\";\n\ncontract ZombieAttack is ZombieHelper {\n    uint randNonce = 0;\n    uint attackVictoryProbability = 70;\n\n    function randMod(uint _modulus) internal returns(uint) {\n        randNonce++;\n        return uint(keccak256(abi.encodePacked(block.timestamp, msg.sender, randNonce))) % _modulus;\n    }\n\n    function attack(uint _zombieId, uint _targetId) external onlyOwnerOf(_zombieId) {\n        Zombie storage myZombie = zombies[_zombieId];\n        Zombie storage enemyZombie = zombies[_targetId];\n        uint rand = randMod(100);\n        if (rand <= attackVictoryProbability) {\n            myZombie.winCount++;\n            myZombie.level++;\n            enemyZombie.lossCount++;\n            feedAndMultiply(_zombieId, enemyZombie.dna, \"zombie\");\n        } else {\n            myZombie.lossCount++;\n            enemyZombie.winCount++;\n            _triggerCooldown(myZombie);\n        }\n    }\n}",
  "sourcePath": "/Users/geotech/Desktop/Personal/Projects/CryptoZombies/contracts/ZombieAttack.sol",
  "compiler": {
    "name": "solc",
    "version": "0.8.6+commit.11564f7e.Emscripten.clang"
  },
  "schemaVersion": "3.4.1",
  "updatedAt": "2021-07-27T16:45:16.153Z",
  "devdoc": {
    "kind": "dev",
    "methods": {
      "isOwner()": {
        "returns": {
          "_0": "true if `msg.sender` is the owner of the contract."
        }
      },
      "owner()": {
        "returns": {
          "_0": "the address of the owner."
        }
      },
      "renounceOwnership()": {
        "details": "Allows the current owner to relinquish control of the contract."
      },
      "transferOwnership(address)": {
        "details": "Allows the current owner to transfer control of the contract to a newOwner.",
        "params": {
          "newOwner": "The address to transfer ownership to."
        }
      }
    },
    "version": 1
  },
  "userdoc": {
    "kind": "user",
    "methods": {
      "renounceOwnership()": {
        "notice": "Renouncing to ownership will leave the contract without an owner. It will not be possible to call the functions with the `onlyOwner` modifier anymore."
      }
    },
    "version": 1
  }
}